S014000043617073746F6E652D4156522E73726563BD
S11300000C9446000C9458000C9458000C9458001E
S11300100C9458000C9458000C9458000C945800FC
S11300200C9458000C9458000C9458000C945800EC
S11300300C9458000C9458000C9458000C947B00B9
S11300400C946C000C9458000C9458000C945800B8
S11300500C9458000C9458000C9458000C945800BC
S11300600C9458000C9458000C9458000C945800AC
S11300700C9458000C9458000C9458000C9458009C
S11300800C9458000C9458000C94580011241FBE72
S1130090CFEFD0E1DEBFCDBF21E0A0E0B1E001C0F1
S11300A01D92A430B207E1F70E94AA000C94F90053
S11300B00C94000088B3806888BB089588B38F7758
S11300C088BB089515BC089584E681BF12BE8AE0FA
S11300D083BF81E087BF08951F920F920FB60F92DE
S11300E011248F9388B3805888BB8F910F900FBED3
S11300F00F901F9018951F920F920FB60F92112414
S11301008F9388B3805888BB8F910F900FBE0F9048
S11301101F90189589E080938A0081E880938B0072
S1130120109289001092880088EC90E090938700E8
S11301308093860082B1886182B90895E5E6F0E093
S11301408081886080830895E5E6F0E08081877F80
S1130150808308951092000110920101109202010F
S1130160109203010E945E002FEF80E792E021507D
S113017080409040E1F700C000000E945A002FEF39
S113018084E39CE0215080409040E1F700C00000EF
S11301900E945E008EE683BDC0E8C7BB89E185BDD1
S11301A014BC2FEF84E39CE0215080409040E1F7A1
S11301B000C000000E9462007894C7BB0E946400E3
S11301C00E948A000E949E002FEF83ED90E321504D
S11301D080409040E1F700C000000E94A4002FEF8F
S11301E084E39CE0215080409040E1F700C000008F
S10901F0E9CFF894FFCFF3
S9030000FC
