:100000000C9449000C94CF000C94CF000C94CF00BA
:100010000C94CF000C94CF000C94CF000C94CF0024
:100020000C94CF000C94CF000C94CF000C94CF0014
:100030000C94CF000C94CF000C94CF000C94C00013
:100040000C94B1000C94CF000C94CF000C94CF0012
:100050000C94CF000C94CF000C94CF000C94CF00E4
:100060000C94CF000C94CF000C94CF000C94CF00D4
:100070000C94CF000C94CF000C94CF000C94CF00C4
:100080000C94CF000C94CF000C94CF00010001041D
:10009000800011241FBECFEFD0E1DEBFCDBFECE862
:1000A000F0E040E017C0B591A591359125910591FB
:1000B00007FD0CC095918591EF01F92FE82F059070
:1000C0000D92A217B307D9F7FE0104C01D92A21723
:1000D000B307E1F7E139F40731F70E9473000C949C
:0600E0007100F894FFCF4F
:1000E6001092000110920101109202011092030178
:1000F60088B38F7788BB2FEF30E782E021503040FE
:100106008040E1F700C0000088B3806888BB9FEF9D
:1001160024E33CE0915020403040E1F700C000006D
:1001260088B38F7788BB8EE683BD80E887BB99E16D
:1001360095BD14BC94E691BF12BE9AE093BF91E0C0
:1001460097BF9FEF24E33CE0915020403040E1F719
:0C01560000C0000015BC789487BBFFCFF0
:100162001F920F920FB60F9211248F9388B380586B
:0E01720088BB8F910F900FBE0F901F901895B5
:100180001F920F920FB60F9211248F9388B380584D
:0E01900088BB8F910F900FBE0F901F90189597
:04019E000C940000BD
:00000001FF
